:020000040800F2
:100000000825002001010008F30C0008EB0C000893
:10001000EF0C0008850700086715000800000000C5
:10002000000000000000000000000000F5110008C2
:10003000B90B00080000000023070008F9110008B0
:100040001701000817010008170100081701000830
:100050001701000817010008170100081701000820
:100060001701000817010008170100081701000810
:100070001701000817010008170100081701000800
:1000800017010008170100081701000817010008F0
:1000900017010008170100081701000817010008E0
:1000A00017010008170100081701000817010008D0
:1000B00017010008170100081701000817010008C0
:1000C00017010008170100081701000817010008B0
:1000D000170100083912000817010008170100086D
:1000E000170100081701000817010008DFF80CD0FD
:1000F00000F0B8FA00480047592000080825002001
:1001000005480047FEE7FEE7FEE7FEE7FEE7FEE7FD
:10011000FEE7FEE7FEE7FEE7ED00000872B6704777
:1001200062B67047EFF3108072B6704780F31088A4
:10013000704730BF704720BF7047B0FA80F07047FB
:1001400090FAA0F0B0FA80F0704790FAA0F07047F3
:100150002DE9FE4F804681EA0300C00F0C46009057
:1001600021F0004123F00045B8EB0200A94105D27F
:100170004046214690461C460B46024623F000406E
:10018000104347D0270DC7F30A00C3F30A5102906A
:10019000401A019040286BDAC3F3130040F4801B2F
:1001A0000098924620B10023D2EB030A63EB0B0BBD
:1001B00001985946C0F14002504600F033F9064616
:1001C0000D4650465946019A00F03BF910EB0800E5
:1001D0006141002487EA115284EAE7731A4340D050
:1001E000009A62B3019A012A4FEA075215DC001BFC
:1001F00061EB02014FF0004202EA0752CDE90042F2
:10020000001C41F5801132462B4600F03BF903B04B
:10021000BDE8F08F40462146F9E7001B61EB020183
:10022000001C41F5801300185B412018A2F500174F
:1002300047EB030140EAD570B6196D4111E06D0836
:100240004FEA360645EAC0754FEA0752001B61EBDC
:100250000201001C41F5801149084FEA30000019E5
:10026000514132462B4603B0BDE8F04F00F0FBB8D9
:100270000098012240000023D0EB020263EBE07300
:10028000009821464FEAE074B8EB000061EB0401EE
:10029000E9E783F000435BE781F0004158E72DE98F
:1002A000F04D81EA030404F0004B21F000451446B0
:1002B0004FF0000A23F0004150EA050220D054EA32
:1002C00001021DD0C5F30A570246C5F31303C1F35B
:1002D0001300C1F30A5640F4801543F48013A7EBD2
:1002E0000608101BD64608F2FD3873EB050002D352
:1002F00008F1010801E092185B41B8F1000F03DA40
:1003000000200146BDE8F08D00204FF48011064624
:1003100084460EE0171B73EB050705D3121B63EB36
:10032000050306434CEA010C49084FEA30009218D5
:100330005B4150EA0107EDD152EA030012D082EA94
:10034000040083EA0501084305D0101BAB4106D227
:100350000122002306E000224FF0004302E06FF08C
:10036000010253101AEB06004CEB085110EB0A0087
:1003700041EB0B01BDE8F04D00F075B80EB540F251
:10038000334102910021CDE900110A460B4600F0ED
:1003900079F803B000BD30B50B460146002020229D
:1003A000012409E021FA02F59D4205D303FA02F582
:1003B000491B04FA02F52844151EA2F10102F1DCE2
:1003C00030BD2DE9F05F0546002092469B468846E9
:1003D0000646814640241BE02846414647462246C1
:1003E00000F052F953465A46C01A914110D31146B3
:1003F0001846224600F016F82D1A67EB01084F4602
:1004000022460120002100F00DF817EB00094E41B3
:10041000201EA4F10104DFDC484631462A4643464B
:10042000BDE8F09F202A04DB203A00FA02F1002008
:1004300070479140C2F1200320FA03F31943904022
:100440007047202A06DBCB17203A41FA02F043EA34
:10045000E07306E041FA02F3D040C2F1200291407D
:1004600008431946704710B5141E73F1000408DAEA
:10047000401C41F1000192185B411A4301D120F068
:10048000010010BD2DE9F04D92469B4611B1B1FA25
:1004900081F202E0B0FA80F220329046FFF7C2FF0C
:1004A00004460F4640EA0A0041EA0B0153465A4609
:1004B000084313D0114653EA010019D0C8F1400295
:1004C000504600F0E1F805460E4650465946424671
:1004D000FFF7A8FF084305D0012004E02046394675
:1004E000BDE8F08D0020054346EAE0762C43374313
:1004F0000A986305E40AA0EB08000022FD0A44EA1A
:1005000047540A3002D500200146E9E701051019D9
:100510006941DDE9084500196941BDE8F04DA2E7F0
:100520002DE9FE4F81EA030404F0004421F000416C
:1005300000944FF0000B23F0004350EA01045ED01A
:1005400052EA03045BD0C3F30A54C1F30A552C44A6
:10055000A4F2F3340194A0FB0254C1F3130141F45B
:100560008011C3F3130343F4801301FB024400FB27
:10057000034E840A970A44EA815447EA8357A4FB4E
:10058000076802958D0A05FB07854FEA932C04FB4B
:100590000C542705029D4FEA065847EA1637B5EB7B
:1005A00008056EEB070C870E920E47EA811742EAA8
:1005B0008312A7FB0201B6EB0B0164EB00042B0DC9
:1005C00043EA0C335E1844EB1C50DA465146E7FB15
:1005D0000201C5F313044FEA0B3343EA14534FEA05
:1005E0000432019C43EA0603A4F10C040294009C2B
:1005F000CDE900B4FFF746FF03B0BDE8F08F00205F
:100600000146F9E7C1F30A52C1F3130140F2FF3387
:1006100041F480119A4202DA00200146704740F20C
:1006200033439A42A2F2334202DC524200F02CB829
:10063000FFF7F8BE30B5041E71F1000404DB4FF083
:100640000044404264EB0101141E73F1000405DB19
:100650001C464FF00043524263EB0403994208BF2B
:10066000904230BD064C074D06E0E06840F00103C3
:1006700094E8070098471034AC42F6D3FFF73AFDF0
:100680002023000840230008202A04DB203A21FA16
:1006900002F00021704721FA02F3D040C2F120029B
:1006A000914008431946704770B58C1810F8015BEB
:1006B00015F0070301D110F8013B2A1106D110F8FB
:1006C000012B03E010F8016B01F8016B5B1EF9D1FF
:1006D0002B0705D40023521E0DD401F8013BFAE785
:1006E00010F8013BCB1A921C03E013F8015B01F8F0
:1006F000015B521EF9D5A142D8D3002070BD000085
:1007000018484FF0FF010170002080F30988164857
:10071000016881F3088815484FF08051016062B686
:10072000FEE772B6EFF3098028B1203880E8F00FB9
:100730000F490968086000B50E4880475DF804EB72
:100740000D480E490A78027009480D490A6802608E
:10075000106890E8F00F203080F309884EF0040E06
:1007600062B6704722ED00E04801002004ED00E091
:1007700040010020750E0008CE000020CF000020B0
:100780004401002000BFFEE701460846044A126803
:10079000904203D9024A1268801A00E00020704794
:1007A0006400002070B5002500BFFFF7BBFC0546C4
:1007B00000BF0648046800BF2846FFF7B7FC00BF2B
:1007C0002046FFF7E1FF0646304670BD6800002076
:1007D00070B50025FFF7E6FF044600BFFFF7A2FC57
:1007E000054600BF00200449086000BF2846FFF707
:1007F0009DFC00BF204670BD6800002010B5094870
:100800000088401C074908800748008818B900F094
:1008100039F80649086004480088401C02490880ED
:1008200010BD0000580000205A0000205C0000208D
:1008300010B50F480088401E0D4908800846008802
:10084000A0B900F01FF80B490860084600680A4983
:100850000968441A09480068A04201D207480460A8
:1008600007480068A04201D20548046010BD00009E
:100870005A000020600000205C000020680000207A
:100880006C0000200148406870470000001000E044
:1008900010B5044600F0D2F822480078001120700C
:1008A0002048007800F00F0060701E48407800116A
:1008B000A0701C48407800F00F00E0701948807864
:1008C000001120711748807800F00F006071154802
:1008D000C0780011A0711348C07800F00F00E071DB
:1008E0001048C07900F0070020720E48007900110E
:1008F00060720C48007900F00F00A072094840793E
:100900000011E0720748407900F00F00207305489D
:100910008079001160730348807900F00F00A073A4
:1009200010BD00003600002008B50121082000F0AD
:10093000D7FB40F20340ADF8000010208DF8030013
:1009400002208DF802006946064800F036F90221BF
:10095000044800F0C8F940F20141024800F0C1F932
:1009600008BD0000000C014070B50446002030496D
:1009700008603049C1F880010A2001F083FA0120A3
:100980002B49086044F001042B48006820F0F00077
:10099000294908600846006840F0200008600026E9
:1009A00018E0002022492839086004F0010018B13D
:1009B0000120091D086003E000201D49243908605A
:1009C000641001201A4928390860092001F05AFAF8
:1009D000701CC6B2082EE4DB1748006820F0F00057
:1009E000154908600846006840F08000086000264D
:1009F00016E00F48A438006810B145F0800501E00A
:100A000005F07F0501200A49283908606D10002093
:100A10000849C1F88001092001F034FA701CC6B2FF
:100A2000082EE6DB002002490860284670BD000061
:100A3000A881214200802142000C014010B58C2089
:100A4000FFF792FF114948708820FFF78DFF0F498B
:100A500088708620FFF788FF0C49C8708420FFF754
:100A600083FF0A4908718220FFF77EFF074948711A
:100A70008020FFF779FF00F07F00044988718A2009
:100A8000FFF772FF0149C87110BD00003600002059
:100A900070B504460E4600202A4908602A49C1F86C
:100AA00080010A2001F0EEF901202649086004F0D7
:100AB000FE042648006820F0F0002449086008463B
:100AC000006840F020000860002518E000201D4963
:100AD0002839086004F0010018B10120091D0860E0
:100AE00003E00020174924390860641001201549EB
:100AF00028390860092001F0C5F9681CC5B2082D25
:100B0000E4DB002518E000200E492839086006F0D3
:100B1000010018B10120091D086003E00020094907
:100B20002439086076100120064928390860092018
:100B300001F0A8F9681CC5B2082DE4DB00200149CA
:100B4000086070BDA881214200802142000C014054
:100B500010B500218E20FFF79BFF80210846FFF78C
:100B600097FF144841788C20FFF792FF1148817855
:100B70008820FFF78DFF0F48C1788620FFF788FF98
:100B80000C4801798420FFF783FF0A4841798220CD
:100B9000FFF77EFF074881798020FFF779FF05483E
:100BA000C1798A20FFF774FF80218E20FFF770FF44
:100BB00010BD00003600002070472DE9F0410246CC
:100BC00000250026002000230024002791F803C000
:100BD0000CF00F0591F803C00CF0100CBCF1000FE5
:100BE00003D091F802C04CEA050591F800C0BCF1B1
:100BF000000F31D0146800202BE04FF0010C0CFAEC
:100C000000F3B1F800C00CEA03069E4220D1830035
:100C10004FF00F0C0CFA03F7BC4305FA03FC4CEA47
:100C2000040491F803C0BCF1280F06D14FF0010C69
:100C30000CFA00FCC2F814C00AE091F803C0BCF141
:100C4000480F05D14FF0010C0CFA00FCC2F810C09F
:100C5000401C0828D1D31460B1F800C0BCF1FF0FCC
:100C600034DD546800202EE000F1080C4FF001083C
:100C700008FA0CF3B1F800C00CEA03069E4221D139
:100C800083004FF00F0C0CFA03F7BC4305FA03FC8A
:100C90004CEA040491F803C0BCF1280F05D100F11F
:100CA000080C08FA0CF8C2F8148091F803C0BCF1E3
:100CB000480F07D100F1080C4FF0010808FA0CF8B2
:100CC000C2F81080401C0828CED35460BDE8F081E3
:100CD0000246002093680B400BB1012000E0002089
:100CE0007047416170470161704700BFFEE700BF78
:100CF000FEE7704770B5002100230F22C47804B3CB
:100D0000154C246804F4E064C4F5E064210AC1F1E0
:100D10000403CA40447804FA03F184781440214360
:100D200009010E4C0678A155047804F01F05012432
:100D3000AC4005786D11AD0005F1E025C5F8004126
:100D400009E0047804F01F050124AC40044D067846
:100D5000761145F8264070BD0CED00E000E400E09F
:100D600080E100E008480078012800D0704707487B
:100D70000078FA2800DBF9E704480078401C0349B2
:100D8000087000BFF2E70000A000002098000020DB
:100D900010B500242E480078012800D010BD00BFF7
:100DA000FFF7C0F9044600BF2A48007828B900BF01
:100DB0002046FFF7BBF900BFF0E726480078401E49
:100DC0002449087008460078002805DD00BF204649
:100DD000FFF7ACF900BFE1E71F480078002805DD08
:100DE00000BF2046FFF7A2F900BFD7E700F042F9A5
:100DF0001A4908700846007800EB4000184951F87D
:100E000020001849086008460068174909688842A8
:100E100005D100BF2046FFF789F900BFBEE71148A2
:100E20000068D0F89000401C0E490968C1F8900095
:100E30000E480068401C0D4908604FF080500C4976
:100E4000086000BF2046FFF771F900BF00BFA5E7AB
:100E5000A000002098000020E8000020CF00002023
:100E6000B0170020440100204001002014010020A0
:100E700004ED00E070B52448006810B12248006815
:100E80008047FFF7FFFC04462048006820490968B6
:100E9000884215D01D480068D0F89800201A1B49D8
:100EA0000968C1F8940019480068D0F89C001749F7
:100EB0000968D1F89410084414490968C1F89C00E5
:100EC00013480068C0F89840FFF782FC05460F48B9
:100ED0000068D0F8B400A84203D20C480068C0F8FB
:100EE000B4500A480068D0F8B8000A490968884236
:100EF00005D20848006805490968C1F8B800002013
:100F00000449086070BD00008C00002040010020F2
:100F100044010020E400002010B586B000F01EF867
:100F2000FFF7B0FC044605A800210091CDE90114AB
:100F300003900748007800EB4000064A02EB80016E
:100F400000231A46044800F013F806B010BD000054
:100F5000CE000020B01700205449434B10B5034881
:100F6000006810B101480068804710BD9000002063
:100F70002DE9F84F04460D4616461F46DDE90BAB3A
:100F8000DDF82890DDF834800020009000BF00BF1D
:100F9000FFF7C8F8009000BFFFF730FC00BF2C48F7
:100FA00000882C49098888423EDA29480088401C7C
:100FB00027490880284800880988884203DA24489D
:100FC0000088254908802548006804602348006897
:100FD000856022480068C6602048006807821F4874
:100FE0000068C0F814901D480068A0F818A01B48BD
:100FF0000068C0F81CB019480068406817490860CC
:10100000012017490881174808604860002000F057
:1010100045F81548007818B113480078134908704E
:101020000020A8F8000008E011480088401C104982
:10103000088044F25360A8F8000000BFFFF7F8FBF7
:1010400000BF0098FFF772F800BF00BFBDE8F88F3F
:10105000AC00002090220008AE000020A400002078
:10106000B0170020DC160020CE000020D0000020A9
:10107000B000002070B50025074C03E005F120000A
:10108000C5B2241D20680028F8D02068FFF755F865
:101090002844C5B2284670BD7000002030B5420912
:1010A00000F01F030121C3F11F04A140034C54F8B9
:1010B00022400C43014D45F8224030BD7000002015
:1010C00029B1064A12690243044B1A6104E0034A3B
:1010D00012698243014B1A61704700000010024000
:1010E00029B1064A92690243044B9A6104E0034A1B
:1010F00092698243014B9A617047000000100240E0
:1011000029B1064AD2680243044BDA6004E0034A7C
:10111000D2688243014BDA60704700000010024041
:1011200030B500210022002400232D4D6D6805F00C
:101130000C0121B1042905D0082923D105E0294D4E
:10114000056022E0274D05601FE0254D6D6805F420
:101150007012234D6D6805F48034022505EB924230
:101160001CB9214D554305600BE01D4D6D6805F41C
:1011700000351DB11C4D5543056002E0194D554326
:10118000056002E0174D056000BF00BF144D6D689B
:1011900005F0F0010909154D6B5C0568DD404560FF
:1011A0000F4D6D6805F4E061090A104D6B5C4568F0
:1011B000DD4085600A4D6D6805F46051C90A0B4D2C
:1011C0006B5C4568DD40C560054D6D6805F44041C8
:1011D000890B074D6B5CC568B5FBF3F5056130BD48
:1011E0000010024000127A0000093D003E0000207D
:1011F0004E0000207047000010B5002400BF00BF63
:10120000FEF790FF044600BFFFF7F8FA00BF094859
:101210000078401C0749087000BFFFF709FB00BFBA
:101220002046FEF783FF00BF00BFFFF775FEFFF704
:10123000AFFD10BD9800002010B5FFF793FD40F200
:1012400025512B4800F0CAF8B0B140F2255128488A
:1012500000F05AF8264800F07DF92649264A12780F
:10126000885425480078401C2349087008460078B7
:10127000042801DB0020087040F227711C4800F0B0
:10128000ADF808B31D480078401C1C49087008469A
:1012900000781B490978884207DA1A48174A1278F9
:1012A000815C134800F05BF90EE0002013490870E0
:1012B000002240F227710E4800F0BAF8012240F2F5
:1012C00026610B4800F0B4F840F22661084800F0AF
:1012D00085F850B140F22661054800F015F800226B
:1012E00040F22661024800F0A3F8FFF751FD10BD5F
:1012F00000380140500100200000002001000020C3
:10130000020000200400002010B50022002340F657
:101310006A14A14200D100BF0A1201249440A3B272
:10132000DC43048010BD21B1828942F400528281E5
:1013300004E082894DF6FF731A40828170470000F5
:1013400010B504462048844209D101218803FFF7E3
:10135000D7FE00214FF48040FFF7D2FE32E01B4859
:10136000844209D101214804FFF7AAFE00214FF46D
:101370000030FFF7A5FE25E01548844209D1012180
:101380008804FFF79DFE00214FF48020FFF798FEB0
:1013900018E01048844209D10121C804FFF790FEEB
:1013A00000214FF40020FFF78BFE0BE00A48844237
:1013B00008D101210805FFF783FE00214FF48010BA
:1013C000FFF77EFE10BD00000038014000440040E1
:1013D00000480040004C00400050004070B50246FC
:1013E000002400230025002040F66A16B14200D1F7
:1013F00000BFC1F3421501F01F03012606FA03F3F3
:10140000012D02D19689334006E0022D02D1168AC1
:10141000334001E0968A33400C12012606FA04F4A8
:101420001688344013B10CB1012000E0002070BDDB
:10143000F0B50346002400260025002040F66A1778
:10144000B94200D100BF1846C1F3421401F01F0693
:10145000012707FA06F5012C01D10C3004E0022C1B
:1014600001D1103000E014301AB107682F43076033
:1014700002E00768AF430760F0BD00002DE9F047C8
:1014800086B005460E460024A24600BFA1460027AE
:10149000B08900B100BF2F462C8A4CF6FF70044083
:1014A000F08804432C82AC894EF6F3100440B088D7
:1014B00031890843718908430443AC81AC8A4FF6F3
:1014C000FF400440B0890443AC8201A8FFF728FE26
:1014D0001F48874202D1DDF810A001E0DDF80CA022
:1014E000A88900F4004040B10AEBCA0000EB0A10E2
:1014F00031684900B0FBF1F807E00AEBCA0000EBE5
:101500000A1031688900B0FBF1F86420B8FBF0F0F4
:1015100004012009642101FB1089A88900F400401E
:1015200040B1322000EBC900B0FBF1F000F0070041
:10153000044308E0322000EB09106421B0FBF1F015
:1015400000F00F0004432C8106B0BDE8F0870000D6
:101550000038014001468888C0F308007047C1F395
:1015600008028280704700BFFEE700000FB4054B01
:1015700010B503A9044A029800F0DAF810BC5DF82F
:1015800014FB0000452000084C01002002E008C8C0
:10159000121F08C1002AFAD170477047002001E0ED
:1015A00001C1121F002AFBD1704700002DE9FF5F27
:1015B00082B00021DDE90430020DDDF840B00343C4
:1015C00018D044F61050A2F2FF324243151411987D
:1015D00001281FD0A5EB0B00401C5FEA000A4FF06A
:1015E00000064E4FDFF83891B046504615D5CAF187
:1015F000000413E0119801244AA3012801D16FEAE5
:101600000B010298119AC0E90031C0E9024206B00C
:10161000BDE8F09FCBF10000DFE704460021404A1F
:10162000491842EB0450CDE9001012E0E00707D062
:1016300032463B4640464946FEF772FF80468946A1
:1016400032463B4610461946FEF76AFF06460F46ED
:101650006410002CEAD1DDE90401DDE90023BAF1D0
:10166000000F06DAFEF75CFF42464B46FEF758FFD6
:1016700005E0FEF714FE42464B46FEF710FE044618
:101680000E460022284BFEF7D5FF03D84FF0FF305F
:10169000014607E00022254B20463146FEF758FD63
:1016A000FEF7B0FF102409E0002C0ADB0A22002319
:1016B000FEF787FE039B30321A55641E50EA010282
:1016C000F2D1641C039AC4F111031444119A012A43
:1016D00003D0012208430DD10AE0084304D00020C2
:1016E0004FF0110B119072E7A3EB0B056D1E0DE08F
:1016F0005B4504DD4FF0000205F1010504E003DA6B
:101700004FF00002A5F10105002AECD002981199D2
:10171000C0E90231C0E9004579E70000000014404B
:101720000000F03F300000000000F0430000E03F08
:101730002DE9FF4F95B09B468946064600250FE2EE
:10174000252877D100242746F84A0121059400E096
:10175000044316F8013F203B01FA03F01042F7D191
:1017600030782A2811D06FF02F033078A0F13002A2
:10177000092A16D8059A44F0020402EB820203EB10
:1017800042021044761C0590EFE759F8042B0592AD
:10179000002A03DA504244F40054059044F0020455
:1017A000761C30782E2816D116F8010F44F0040468
:1017B0002A280DD06FF02F023078A0F13003092BCA
:1017C00009D807EB870302EB4303C718761CF3E73E
:1017D00059F8047B761C30786C280FD006DC4C2836
:1017E00017D068280DD06A2814D104E0742810D0CE
:1017F0007A280FD10DE044F400140AE044F4801478
:1018000001E044F440147278824202D104F580145D
:10181000761C761C307866280BD013DC582877D0DD
:1018200009DC002875D04528F6D04628F4D0472892
:101830001AD19DE118E0632835D0642879D0652855
:1018400012D195E1702873D008DC6728F1D069289F
:101850006FD06E280DD06F2806D1B5E073282CD03C
:10186000752875D0782874D05A46179990476D1C02
:1018700075E1C4F30250022809D003280DD0D9F82D
:10188000001004280DD00D6009F1040967E1D9F8B2
:101890000010EA17C1E90052F6E7D9F800100D80F0
:1018A000F2E70D70F0E719F8041B8DF80010002026
:1018B0008DF80100EA46012003E059F804AB4FF02F
:1018C000FF3061074FF0000102D40DE008F1010183
:1018D0008846B9420FDA8045F8DB1AF8081000296B
:1018E000F4D108E008F1010188468142FADB1AF8D8
:1018F00008100029F6D105985B46A0EB08072146A1
:101900003846179A00F094FA284400EB080507E0DF
:101910004DE029E10DE01AF8010B5A46179990475E
:10192000B8F10108F7D25B4621463846179A13E111
:1019300042E00A220092C4F302524FF0000A022A47
:1019400008D059F804CB032A4FEAEC710AD00DE015
:1019500029E02AE009F1070121F00702F2E802C1BB
:10196000914609E00FFA8CFC4FEAEC71042A03D18E
:101970004FFA8CFC4FEAEC71002907DA0A46002185
:10198000DCF1000C61EB02012D2202E0220504D5FE
:101990002B228DF80420012203E0E20701D020224F
:1019A000F7E7904659E00A2102E010220DE01021ED
:1019B0004FF0000A00910BE010224FF0000A44F0B3
:1019C00004040827009203E008224FF0000A009266
:1019D000C4F30252022A05D059F804CB0021032A8D
:1019E00008D009E009F1070121F00702F2E802C17D
:1019F000914605E01FFA8CFC042A01D10CF0FF0C83
:101A00004FF00008220728D5702806D0009B83F0ED
:101A1000100353EA0A0305D00EE040228DF804209B
:101A2000012208E05CEA010206D030228DF8042091
:101A30008DF8050002229046009B83F0080353EACC
:101A40000A030AD15CEA010201D1620705D53022FE
:101A50008DF804204FF001087F1E582804D034A0D0
:101A600003900EA802900DE036A0F9E753466046B9
:101A7000009AFEF7A6FC84460398825C0298401EFA
:101A8000029002705CEA0100F0D1029806A9081ADF
:101A900000F1200A600702D524F4803400E0012719
:101AA000574502DDA7EB0A0000E0002000EB0A0129
:101AB000009005984144401A0590E00306D45B4627
:101AC0002146179A059800F0B3F90544002706E06F
:101AD00001A85A46C05D179990476D1C7F1C474569
:101AE000F6DBE0030CD55B462146179A059800F01B
:101AF0009FF9054404E030205A46179990476D1C21
:101B00000099481E00900029F5DC08E0029802992F
:101B10005A460078491C0291179990476D1CBAF1FA
:101B20000001AAF1010AF1DC65E1000009280100C9
:101B30003031323334353637383961626364656643
:101B40000000000030313233343536373839414205
:101B5000434445460000000000F058F90544761C57
:101B6000307800287FF4ECAD19B02846BDE8F08F3E
:101B7000620700D4062709F1070222F0070CFCE8EF
:101B80000223E14603F000485FEA080C02D00FF29E
:101B9000702C0DE05FEA045C02D50FF2682C07E0C0
:101BA0005FEAC47C02D00FF2602C01E0AFF2700C4F
:101BB0004FF0FF3823F00043CDF850C065280CD01B
:101BC00006DC452809D046281DD047283DD13DE0F8
:101BD000662818D067287ED138E00021112F01DB5C
:101BE000112000E0781CCDE9000106A90EA8FFF73E
:101BF000DDFCDDE90F010E9A03910021009207F14F
:101C0000010A04914DE04FF000400097CDE901102A
:101C100006A90EA8FFF7CAFCDDE90F0203920E9B8E
:101C200011990022DDF80CA00093049211B9791CDF
:101C300000EB010AB7EB0A0004D4C0F1FF3007F152
:101C4000010A0490AAEB0700019044E0012F00DA9A
:101C500001270021112F01DD112000E03846CDE9D8
:101C6000000106A90EA8FFF7A1FCDDE90F010E9AFD
:101C70000391002104910092BA4621070CD40399E4
:101C8000514500DA8A46BAF1010F05DD009AAAF142
:101C90000101515C302908D0B84202DA10F1040F7A
:101CA00006DA0121CDE9011015E0AAF10101E9E709
:101CB000002805DC049901440491AAEB000102E02C
:101CC000411C514500DD8A460499401A401C019090
:101CD0004FF000400290200704D40198504501DBEA
:101CE000CDF8048000208DF84F0002980DF14F07C9
:101CF000B0F1004F25D02B200E9002984FF0020833
:101D000000280CDA404202902D200E9007E00A21B4
:101D10000298FEF740FB3031029007F8011DB8F140
:101D20000001A8F10108F2DC02980028EFD1791E29
:101D30000E980870307800F0200040F0450007F859
:101D4000020D12A8C01B00F107081498007800B11A
:101D5000012000EB0A01019801EBE0710598414474
:101D6000401A401E0590E00306D45B462146179AB0
:101D7000059800F05DF805441498007818B15A46AB
:101D8000179990476D1CE00324D55B462146179AAE
:101D9000059800F04DF805441CE00498002807DB86
:101DA000DDE90301884203DD0098405C179901E0FA
:101DB000179930205A469047049805F10105401CB8
:101DC00004900198401E019004D12E205A46179984
:101DD00090476D1CBAF10001AAF1010ADDDC05E0B3
:101DE00017F8010B5A46179990476D1CB8F100017E
:101DF000A8F10108F4DC5B462146179A0598ABE68A
:101E00002D0000002B000000200000002DE9F04113
:101E1000044600251E461746880404D405E03946CA
:101E20002020B0476D1C641EF9D52846BDE8F0811E
:101E30002DE9F041044600251E469046C80301D511
:101E4000302700E02027880404D505E041463846C5
:101E5000B0476D1C641EF9D52846BDE8F0814FF0EF
:101E6000E020006940F004004FF0E0210861704775
:101E700010B504464FF47A7104FB01F000F002F84B
:101E800010BD000030B585B004466846FFF748F93C
:101E90000C490198B0FBF1F0C5B205FB04F04FF01E
:101EA000E02148610520086100BF4FF0E020006993
:101EB00000F480300028F8D004204FF0E0210861C1
:101EC00005B030BD40420F0008B501210820FFF7E2
:101ED00007F94FF40060ADF8000003208DF8020010
:101EE00004208DF8030069460148FEF766FE08BD30
:101EF000000C014008B501210820FFF7F1F84FF46C
:101F00000060ADF8000003208DF8020010208DF86D
:101F1000030069460148FEF750FE08BD000C014071
:101F200010B500BF4FF400610D48FEF7D1FE002848
:101F3000F8D02820FFF7A6FF4FF400610848FEF70D
:101F4000C7FE012809D100BF4FF400610448FEF725
:101F5000BFFE0128F8D0012010BD0020FCE70000E2
:101F6000000C014070B50024002508E04FF6FF701A
:101F700000EA4404FFF7D4FF0443681C85B2082D2F
:101F8000F4DB204670BD000070B50446002500F06B
:101F900035F800F04DF860BB00BF00F049F80028AC
:101FA000FBD000BF00F044F80128FBD0002504E07E
:101FB000FFF7D8FF6055681C85B2052DF8DB00BF20
:101FC00000F036F80028FBD0FFF794FF4FF40061D3
:101FD0000948FEF788FE207861780844A178084413
:101FE000E1780844C6B22079B04201D0012070BD2A
:101FF00000BF0020FBE70000000C014010B5FFF718
:1020000079FF4FF400610948FEF76BFE44F6382073
:10201000FFF738FF4FF400610448FEF764FE1E200E
:10202000FFF730FFFFF750FF10BD0000000C01402C
:1020300010B54FF400610248FEF74AFE10BD0000E3
:10204000000C014038B504468DF8000069460320B5
:10205000ABBE204638BD00008CB0FFF700FF00F09B
:10206000B3F8FEF761FC0A20FFF702FFFEF770FDF0
:1020700072E006A8FEF70CFC9DF81F009DF81E10EC
:102080009DF81D209DF81C30CDE90132CDE90310EB
:102090009DF81B0000909DF81A309DF819209DF8BE
:1020A00018102EA0FFF762FA9DF820009DF8261068
:1020B0009DF825209DF82430CDE90032CDE90210AD
:1020C0009DF823309DF822209DF8211029A0FFF7CC
:1020D0004DFA4FF47A70FFF7CBFE0AA8FFF754FFD2
:1020E00068BB9DF82900FEF749F980460022284B7D
:1020F000FEF7D5F882468B469DF82800FEF73EF99C
:1021000052465B46CDE90401FEF722F804460D462F
:102110009DF82B00FEF732F9804600221C4BFEF79B
:10212000BEF882468B469DF82A00FEF727F95246F4
:102130005B46CDE90401FEF70BF806460F46324632
:102140003B4614A0CDE90045FFF710FA1D48FFF704
:1021500099FE1C48FFF796FE8BE700002564256476
:1021600025642564C4EA25642564D4C225642564F5
:10217000C8D5200025642564CAB125642564B7D676
:1021800025642564C3EB20D0C7C6DA25640D0A0098
:10219000000024405F5F5F7B2274656D7065726133
:1021A00074757265223A20252E32662C20226875BD
:1021B0006D69646E657373223A20252E32667D5FE9
:1021C0005F5F0A0080841E0000B587B001210420F3
:1021D000FEF786FF01218803FEF782FF25208DF898
:1021E000040001208DF8050000208DF80600012074
:1021F0008DF8070001A8FEF77DFD4FF40070ADF8E3
:10220000180018208DF81B0003208DF81A0006A96D
:102210001848FEF7D2FC4FF48060ADF81800042097
:102220008DF81B0006A91348FEF7C7FC1248FFF7FC
:1022300087F84FF4E13002900020ADF80C00ADF8C3
:102240000E00ADF810000C20ADF812000020ADF823
:10225000140002A90848FFF711F9012240F22551A4
:102260000548FFF7E5F801210348FFF75CF807B0E0
:1022700000BD00000008014000380140840100203A
:102280000C00000080000000000200008403002019
:102290000A00000040010000C40400200C000000FF
:1022A0008000000000020000C40600208000000042
:1022B000000200006400000040060000C408002086
:1022C0003E0000000A000000040F00200C00000087
:1022D000800000000002000040000000E803000051
:1022E00001000000041100200C000000800000002C
:1022F0000002000011000000880000000200000041
:102300000A0000008C1300200C0000008000000078
:10231000000200001100000088000000901400007E
:10232000402300080000002050010000A80600081B
:102330006423000850010020B82300009C15000809
:1023400041072C74747461617317201906280827DB
:1023500042042D01020304040009FE0607080902D5
:042360000406080067
:04000005080000ED02
:00000001FF
